{
  "contractName": "WhereIsAlex",
  "abi": [
    {
      "constant": true,
      "inputs": [],
      "name": "nBets",
      "outputs": [
        {
          "name": "",
          "type": "uint256"
        }
      ],
      "payable": false,
      "stateMutability": "view",
      "type": "function"
    },
    {
      "constant": true,
      "inputs": [],
      "name": "currentCheckIn",
      "outputs": [
        {
          "name": "",
          "type": "uint256"
        }
      ],
      "payable": false,
      "stateMutability": "view",
      "type": "function"
    },
    {
      "constant": true,
      "inputs": [
        {
          "name": "",
          "type": "uint256"
        }
      ],
      "name": "bets",
      "outputs": [
        {
          "name": "checkIn",
          "type": "uint256"
        },
        {
          "name": "sender",
          "type": "address"
        },
        {
          "name": "airport",
          "type": "bytes3"
        },
        {
          "name": "value",
          "type": "uint256"
        },
        {
          "name": "timestamp",
          "type": "uint256"
        }
      ],
      "payable": false,
      "stateMutability": "view",
      "type": "function"
    },
    {
      "constant": true,
      "inputs": [
        {
          "name": "",
          "type": "uint256"
        },
        {
          "name": "",
          "type": "bytes3"
        }
      ],
      "name": "airportBets",
      "outputs": [
        {
          "name": "",
          "type": "uint256"
        }
      ],
      "payable": false,
      "stateMutability": "view",
      "type": "function"
    },
    {
      "constant": true,
      "inputs": [],
      "name": "alex",
      "outputs": [
        {
          "name": "",
          "type": "address"
        }
      ],
      "payable": false,
      "stateMutability": "view",
      "type": "function"
    },
    {
      "constant": true,
      "inputs": [
        {
          "name": "",
          "type": "uint256"
        },
        {
          "name": "",
          "type": "address"
        }
      ],
      "name": "userBets",
      "outputs": [
        {
          "name": "",
          "type": "uint256"
        }
      ],
      "payable": false,
      "stateMutability": "view",
      "type": "function"
    },
    {
      "constant": true,
      "inputs": [],
      "name": "owner",
      "outputs": [
        {
          "name": "",
          "type": "address"
        }
      ],
      "payable": false,
      "stateMutability": "view",
      "type": "function"
    },
    {
      "constant": true,
      "inputs": [
        {
          "name": "",
          "type": "uint256"
        }
      ],
      "name": "checkIns",
      "outputs": [
        {
          "name": "id",
          "type": "uint256"
        },
        {
          "name": "airport",
          "type": "bytes3"
        },
        {
          "name": "timestamp",
          "type": "uint256"
        },
        {
          "name": "sumBets",
          "type": "uint256"
        }
      ],
      "payable": false,
      "stateMutability": "view",
      "type": "function"
    },
    {
      "inputs": [
        {
          "name": "_alex",
          "type": "address"
        }
      ],
      "payable": false,
      "stateMutability": "nonpayable",
      "type": "constructor"
    },
    {
      "anonymous": false,
      "inputs": [
        {
          "indexed": true,
          "name": "checkIn",
          "type": "uint256"
        },
        {
          "indexed": true,
          "name": "sender",
          "type": "address"
        },
        {
          "indexed": true,
          "name": "airport",
          "type": "bytes3"
        },
        {
          "indexed": false,
          "name": "value",
          "type": "uint256"
        },
        {
          "indexed": false,
          "name": "timestamp",
          "type": "uint256"
        }
      ],
      "name": "NewBet",
      "type": "event"
    },
    {
      "anonymous": false,
      "inputs": [
        {
          "indexed": true,
          "name": "id",
          "type": "uint256"
        },
        {
          "indexed": true,
          "name": "airport",
          "type": "bytes3"
        },
        {
          "indexed": false,
          "name": "timestamp",
          "type": "uint256"
        },
        {
          "indexed": false,
          "name": "sumBets",
          "type": "uint256"
        }
      ],
      "name": "NewCheckIn",
      "type": "event"
    },
    {
      "anonymous": false,
      "inputs": [
        {
          "indexed": true,
          "name": "user",
          "type": "address"
        },
        {
          "indexed": false,
          "name": "value",
          "type": "uint256"
        }
      ],
      "name": "Withdraw",
      "type": "event"
    },
    {
      "constant": false,
      "inputs": [
        {
          "name": "_airport",
          "type": "bytes3"
        }
      ],
      "name": "addBet",
      "outputs": [],
      "payable": true,
      "stateMutability": "payable",
      "type": "function"
    },
    {
      "constant": false,
      "inputs": [
        {
          "name": "_airport",
          "type": "bytes3"
        }
      ],
      "name": "checkIn",
      "outputs": [],
      "payable": false,
      "stateMutability": "nonpayable",
      "type": "function"
    },
    {
      "constant": false,
      "inputs": [
        {
          "name": "checkInId",
          "type": "uint256"
        }
      ],
      "name": "withdraw",
      "outputs": [],
      "payable": false,
      "stateMutability": "nonpayable",
      "type": "function"
    }
  ],
  "bytecode": "0x608060405234801561001057600080fd5b5060405160208061132083398101806040528101908080519060200190929190505050336000806101000a81548173ffffffffffffffffffffffffffffffffffffffff021916908373ffffffffffffffffffffffffffffffffffffffff16021790555080600160006101000a81548173ffffffffffffffffffffffffffffffffffffffff021916908373ffffffffffffffffffffffffffffffffffffffff1602179055506100cb61022a640100000000026401000000009004565b600560a06040519081016040528060008152602001600073ffffffffffffffffffffffffffffffffffffffff16815260200160007d010000000000000000000000000000000000000000000000000000000000027cffffffffffffffffffffffffffffffffffffffffffffffffffffffffff19168152602001600081526020016000815250908060018154018082558091505090600182039060005260206000209060040201600090919290919091506000820151816000015560208201518160010160006101000a81548173ffffffffffffffffffffffffffffffffffffffff021916908373ffffffffffffffffffffffffffffffffffffffff16021790555060408201518160010160146101000a81548162ffffff02191690837d01000000000000000000000000000000000000000000000000000000000090040217905550606082015181600201556080820151816003015550505050610322565b6004608060405190810160405280600254815260200160007d010000000000000000000000000000000000000000000000000000000000027cffffffffffffffffffffffffffffffffffffffffffffffffffffffffff19168152602001600081526020016000815250908060018154018082558091505090600182039060005260206000209060040201600090919290919091506000820151816000015560208201518160010160006101000a81548162ffffff02191690837d010000000000000000000000000000000000000000000000000000000000900402179055506040820151816002015560608201518160030155505050565b610fef806103316000396000f3006080604052600436106100af576000357c0100000000000000000000000000000000000000000000000000000000900463ffffffff16806308cc2a1c146100b457806321520129146100df57806322af00fa1461010a5780632e1a7d4d146101d35780633af4436b1461020057806357d2a15a1461026b5780637d06a8e1146102c257806383d277b4146103235780638da5cb5b14610370578063c605972a146103c7578063cd10a41b1461045d575b600080fd5b3480156100c057600080fd5b506100c961049d565b6040518082815260200191505060405180910390f35b3480156100eb57600080fd5b506100f46104a3565b6040518082815260200191505060405180910390f35b34801561011657600080fd5b50610135600480360381019080803590602001909291905050506104a9565b604051808681526020018573ffffffffffffffffffffffffffffffffffffffff1673ffffffffffffffffffffffffffffffffffffffff168152602001847cffffffffffffffffffffffffffffffffffffffffffffffffffffffffff19167cffffffffffffffffffffffffffffffffffffffffffffffffffffffffff191681526020018381526020018281526020019550505050505060405180910390f35b3480156101df57600080fd5b506101fe60048036038101908080359060200190929190505050610538565b005b34801561020c57600080fd5b506102556004803603810190808035906020019092919080357cffffffffffffffffffffffffffffffffffffffffffffffffffffffffff191690602001909291905050506108b8565b6040518082815260200191505060405180910390f35b34801561027757600080fd5b506102806108dd565b604051808273ffffffffffffffffffffffffffffffffffffffff1673ffffffffffffffffffffffffffffffffffffffff16815260200191505060405180910390f35b3480156102ce57600080fd5b5061030d60048036038101908080359060200190929190803573ffffffffffffffffffffffffffffffffffffffff169060200190929190505050610903565b6040518082815260200191505060405180910390f35b34801561032f57600080fd5b5061036e60048036038101908080357cffffffffffffffffffffffffffffffffffffffffffffffffffffffffff19169060200190929190505050610928565b005b34801561037c57600080fd5b50610385610a7b565b604051808273ffffffffffffffffffffffffffffffffffffffff1673ffffffffffffffffffffffffffffffffffffffff16815260200191505060405180910390f35b3480156103d357600080fd5b506103f260048036038101908080359060200190929190505050610aa0565b60405180858152602001847cffffffffffffffffffffffffffffffffffffffffffffffffffffffffff19167cffffffffffffffffffffffffffffffffffffffffffffffffffffffffff1916815260200183815260200182815260200194505050505060405180910390f35b61049b60048036038101908080357cffffffffffffffffffffffffffffffffffffffffffffffffffffffffff19169060200190929190505050610b09565b005b60035481565b60025481565b6005818154811015156104b857fe5b90600052602060002090600402016000915090508060000154908060010160009054906101000a900473ffffffffffffffffffffffffffffffffffffffff16908060010160149054906101000a90047d01000000000000000000000000000000000000000000000000000000000002908060020154908060030154905085565b60008060008060048581548110151561054d57fe5b906000526020600020906004020193506006600086815260200190815260200160002060003373ffffffffffffffffffffffffffffffffffffffff1673ffffffffffffffffffffffffffffffffffffffff168152602001908152602001600020549250826005805490501115156105c357600080fd5b6005838154811015156105d257fe5b906000526020600020906004020191503373ffffffffffffffffffffffffffffffffffffffff168260010160009054906101000a900473ffffffffffffffffffffffffffffffffffffffff1673ffffffffffffffffffffffffffffffffffffffff1614151561064057600080fd5b8160010160149054906101000a90047d010000000000000000000000000000000000000000000000000000000000027cffffffffffffffffffffffffffffffffffffffffffffffffffffffffff19168460010160009054906101000a90047d010000000000000000000000000000000000000000000000000000000000027cffffffffffffffffffffffffffffffffffffffffffffffffffffffffff19161415156106ea57600080fd5b6007600086815260200190815260200160002060008560010160009054906101000a90047d010000000000000000000000000000000000000000000000000000000000027cffffffffffffffffffffffffffffffffffffffffffffffffffffffffff19167cffffffffffffffffffffffffffffffffffffffffffffffffffffffffff1916815260200190815260200160002054846003015483600201540281151561079157fe5b049050816002015481101515156107a757600080fd5b3373ffffffffffffffffffffffffffffffffffffffff166108fc829081150290604051600060405180830381858888f193505050501580156107ed573d6000803e3d6000fd5b506005838154811015156107fd57fe5b90600052602060002090600402016000808201600090556001820160006101000a81549073ffffffffffffffffffffffffffffffffffffffff02191690556001820160146101000a81549062ffffff02191690556002820160009055600382016000905550503373ffffffffffffffffffffffffffffffffffffffff167f884edad9ce6fa2440d8a54cc123490eb96d2768479d49ff9c7366125a9424364826040518082815260200191505060405180910390a25050505050565b6007602052816000526040600020602052806000526040600020600091509150505481565b600160009054906101000a900473ffffffffffffffffffffffffffffffffffffffff1681565b6006602052816000526040600020602052806000526040600020600091509150505481565b6000600160009054906101000a900473ffffffffffffffffffffffffffffffffffffffff1673ffffffffffffffffffffffffffffffffffffffff163373ffffffffffffffffffffffffffffffffffffffff1614151561098657600080fd5b600460025481548110151561099757fe5b90600052602060002090600402019050818160010160006101000a81548162ffffff02191690837d010000000000000000000000000000000000000000000000000000000000900402179055504281600201819055506002548160000181905550817cffffffffffffffffffffffffffffffffffffffffffffffffffffffffff19166002547f8c0fcf1082690de012beccc30d15a00386be9d632f4e3c1708256e3ad152d1c9428460030154604051808381526020018281526020019250505060405180910390a360026000815460010191905081905550610a77610ecb565b5050565b6000809054906101000a900473ffffffffffffffffffffffffffffffffffffffff1681565b600481815481101515610aaf57fe5b90600052602060002090600402016000915090508060000154908060010160009054906101000a90047d01000000000000000000000000000000000000000000000000000000000002908060020154908060030154905084565b60008060006004600254815481101515610b1f57fe5b9060005260206000209060040201925060066000600254815260200190815260200160002060003373ffffffffffffffffffffffffffffffffffffffff1673ffffffffffffffffffffffffffffffffffffffff168152602001908152602001600020549150600082141515610b9357600080fd5b600034111515610ba257600080fd5b600560a06040519081016040528060025481526020013373ffffffffffffffffffffffffffffffffffffffff168152602001867cffffffffffffffffffffffffffffffffffffffffffffffffffffffffff1916815260200134815260200142815250908060018154018082558091505090600182039060005260206000209060040201600090919290919091506000820151816000015560208201518160010160006101000a81548173ffffffffffffffffffffffffffffffffffffffff021916908373ffffffffffffffffffffffffffffffffffffffff16021790555060408201518160010160146101000a81548162ffffff02191690837d01000000000000000000000000000000000000000000000000000000000090040217905550606082015181600201556080820151816003015550505060036000815460010191905081905560066000600254815260200190815260200160002060003373ffffffffffffffffffffffffffffffffffffffff1673ffffffffffffffffffffffffffffffffffffffff168152602001908152602001600020819055506007600060025481526020019081526020016000206000857cffffffffffffffffffffffffffffffffffffffffffffffffffffffffff19167cffffffffffffffffffffffffffffffffffffffffffffffffffffffffff191681526020019081526020016000205490508034820110151515610db757600080fd5b3481016007600060025481526020019081526020016000206000867cffffffffffffffffffffffffffffffffffffffffffffffffffffffffff19167cffffffffffffffffffffffffffffffffffffffffffffffffffffffffff1916815260200190815260200160002081905550343484600301540110151515610e3957600080fd5b348360030160008282540192505081905550837cffffffffffffffffffffffffffffffffffffffffffffffffffffffffff19163373ffffffffffffffffffffffffffffffffffffffff166002547f87f050b0f08a59e25d5d7088906afb69b4cbf9b7f149ed563bafe2f8c84969093442604051808381526020018281526020019250505060405180910390a450505050565b6004608060405190810160405280600254815260200160007d010000000000000000000000000000000000000000000000000000000000027cffffffffffffffffffffffffffffffffffffffffffffffffffffffffff19168152602001600081526020016000815250908060018154018082558091505090600182039060005260206000209060040201600090919290919091506000820151816000015560208201518160010160006101000a81548162ffffff02191690837d0100000000000000000000000000000000000000000000000000000000009004021790555060408201518160020155606082015181600301555050505600a165627a7a7230582056c10d79a4a8a4000e7bdd052fe77361b01d950c368cdb8f53c222a5a6ee5fef0029",
  "source": "pragma solidity ^0.4.24;\n\ncontract WhereIsAlex\n{\n\tstruct Bet {\n\t\tuint checkIn;\n\t\taddress sender;\n\t\tbytes3 airport;\n\t\tuint value;\n\t\tuint timestamp;\n\t}\n\n\tstruct CheckIn {\n\t\tuint id;\n\t\tbytes3 airport;\n\t\tuint timestamp;\n\t\tuint sumBets;\n\t}\n\n\taddress public owner;\n\taddress public alex;\n\tuint public currentCheckIn;\n\tuint public nBets;\n\tCheckIn[] public checkIns;\n\tBet[] public bets;\n\tmapping (uint => mapping (address => uint)) public userBets;\n\tmapping (uint => mapping (bytes3 => uint)) public airportBets;\n\n\tevent NewBet(uint indexed checkIn, address indexed sender, bytes3 indexed airport, uint value, uint timestamp);\n\tevent NewCheckIn(uint indexed id, bytes3 indexed airport, uint timestamp, uint sumBets);\n\tevent Withdraw(address indexed user, uint value);\n\n\tmodifier onlyAlex {\n\t\trequire(msg.sender == alex);\n\t\t_;\n\t}\n\n\tconstructor (address _alex) public {\n\t\towner = msg.sender;\n\t\talex = _alex;\n\t\tpushEmptyCheckIn();\n\t\t// Hack to make it easier to check if an address has bet\n\t\tbets.push(Bet({\n\t\t\tairport: 0x0,\n\t\t\tsender: 0x0,\n\t\t\tvalue: 0,\n\t\t\tcheckIn: 0,\n\t\t\ttimestamp: 0\n\t\t}));\n\t}\n\n\tfunction addBet(bytes3 _airport) public payable {\n\t\tCheckIn storage checkIn = checkIns[currentCheckIn];\n\t\tuint betId = userBets[currentCheckIn][msg.sender];\n\t\trequire(betId == 0);\n\t\trequire(msg.value > 0);\n\t\t// New bet from that user on that checkIn\n\t\tbets.push(Bet({\n\t\t\tvalue: msg.value,\n\t\t\tairport: _airport,\n\t\t\tsender: msg.sender,\n\t\t\ttimestamp: block.timestamp,\n\t\t\tcheckIn: currentCheckIn\n\t\t}));\n\t\tuserBets[currentCheckIn][msg.sender] = ++nBets;\n\n\t\tuint _airportBet = airportBets[currentCheckIn][_airport];\n\t\trequire(_airportBet + msg.value >= _airportBet);\n\t\tairportBets[currentCheckIn][_airport] = _airportBet + msg.value;\n\n\t\trequire(checkIn.sumBets + msg.value >= msg.value);\n\t\tcheckIn.sumBets += msg.value;\n\n\t\temit NewBet(currentCheckIn, msg.sender, _airport, msg.value, block.timestamp);\n\t}\n\n\tfunction checkIn(bytes3 _airport) onlyAlex public {\n\t\tCheckIn storage check = checkIns[currentCheckIn];\n\t\tcheck.airport = _airport;\n\t\tcheck.timestamp = block.timestamp;\n\t\tcheck.id = currentCheckIn;\n\n\t\temit NewCheckIn(currentCheckIn, _airport, block.timestamp, check.sumBets);\n\n\t\t++currentCheckIn;\n\t\tpushEmptyCheckIn();\n\t}\n\n\tfunction withdraw(uint checkInId) public {\n\t\tCheckIn storage check = checkIns[checkInId];\n\t\tuint betId = userBets[checkInId][msg.sender];\n\t\trequire(bets.length > betId);\n\t\tBet storage bet = bets[betId];\n\t\trequire(bet.sender == msg.sender);\n\t\trequire(check.airport == bet.airport);\n\t\t\n\t\tuint amount = (bet.value * check.sumBets) / airportBets[checkInId][check.airport];\n\t\trequire(amount >= bet.value);\n\t\tmsg.sender.transfer(amount);\n\t\tdelete bets[betId];\n\n\t\temit Withdraw(msg.sender, amount);\n\t}\n\n\tfunction pushEmptyCheckIn() internal {\n\t\tcheckIns.push(CheckIn({\n\t\t\tairport: 0,\n\t\t\tid: currentCheckIn,\n\t\t\ttimestamp: 0,\n\t\t\tsumBets: 0\n\t\t}));\n\t}\n}\n",
  "sourcePath": "/home/leonardo/devel/whereisalex/contracts/WhereIsAlex.sol",
  "compiler": {
    "name": "solc",
    "version": "0.4.24+commit.e67f0147.Emscripten.clang"
  },
  "schemaVersion": "2.0.0",
  "updatedAt": "2018-06-08T22:47:51.169Z"
}